:02000000D22804
:10000800FF00030E8301AF000A08B0008A017008E0
:10001800A1007108A0000408A2008C1E1A28C420A0
:100028002708323A031D192825158C122108F000DB
:100038002008F1002208840030088A002F0E83006F
:06004800FF0E7F0E09000F
:10004E00831203131A08F100981C2F281812181681
:06005E007108F00008002B
:0E0064008312031324088A0023088200080078
:1000720083160313981690308312980083168717FD
:10008200071383128C1E48281A08F0004228080021
:10009200FF3083120313B300FF30B4003208F000C4
:1000A200B203700803198C283408F500F601FF30FA
:1000B2003305F0003408F1000030F1053108840006
:1000C20000087006F3007108F4000030F4067308AB
:1000D200F0007408F100F00DF10D70102430F007FB
:1000E20001300318013EF1077008A3007108A40053
:1000F20032208A110A12F000A30A0319A40A32203C
:100102008A110A12F10070087506B30076087106AA
:10011200B400B10A4F283308F0003408F100080097
:1001220083160317850103138501051483128514B1
:100132002630AE00A901AA013330831699001815A2
:10014200392083168C160B178B178312AD012510DD
:100152002518AD28A510AE28A514A518B22825117A
:10016200B32825150630FB001330FC00AD30FD002E
:10017200FD0BB928FC0BB928FB0BB92800000000C5
:06018200023085060800B2
:10018800831203132D082E07B50027203508840095
:0C01980070088000AD0A000000000800A4
:1001A40091202D08043C0318DA28AD012630AE0056
:1001B400251DEF282630B1000330B2004920700815
:1001C400AB007108AC002A087106031DEB28700807
:1001D4002906031DEE28A5142511A51C1B29851429
:1001E4000B30FB002630FC005D30FD00FD0BF828D1
:1001F400FC0BF828FB0BF828000000001629051159
:10020400A901AA01A601A701A8010630FB00133029
:10021400FC00AD30FD00FD0B0D29FC0B0D29FB0B83
:100224000D29000000001A292808333A031901296E
:10023400A51085182029051D2029222985100515BA
:04024400D32823296F
:1002480000340034C134C0348134C1344034013402
:100258000134C334C0340334803402344134C234EA
:100268000134C634C0340634803407344134C734CA
:1002780000340534C134C5348134C43440340434C2
:100288000134CC34C0340C3480340D344134CD3492
:1002980000340F34C134CF348134CE3440340E347A
:1002A80000340A34C134CA348134CB3440340B347A
:1002B8000134C934C0340934803408344134C83472
:1002C8000134D834C0341834803419344134D93422
:1002D80000341B34C134DB348134DA3440341A340A
:1002E80000341E34C134DE348134DF3440341F34EA
:1002F8000134DD34C0341D3480341C344134DC34E2
:1003080000341434C134D4348134D53440341534F1
:100318000134D734C0341734803416344134D634D9
:100328000134D234C0341234803413344134D334D9
:1003380000341134C134D1348134D03440341034D1
:100348000134F034C0343034803431344134F13441
:1003580000343334C134F3348134F2344034323429
:1003680000343634C134F6348134F7344034373409
:100378000134F534C0343534803434344134F43401
:1003880000343C34C134FC348134FD3440343D34D1
:100398000134FF34C0343F3480343E344134FE34B9
:1003A8000134FA34C0343A3480343B344134FB34B9
:1003B80000343934C134F9348134F83440343834B1
:1003C80000342834C134E8348134E93440342934E1
:1003D8000134EB34C0342B3480342A344134EA34C9
:1003E8000134EE34C0342E3480342F344134EF34A9
:1003F80000342D34C134ED348134EC3440342C34A1
:100408000134E434C0342434803425344134E534B0
:1004180000342734C134E7348134E6344034263498
:1004280000342234C134E2348134E3344034233498
:100438000134E134C0342134803420344134E03490
:100448000134A034C0346034803461344134A13480
:1004580000346334C134A3348134A2344034623468
:1004680000346634C134A6348134A7344034673448
:100478000134A534C0346534803464344134A43440
:1004880000346C34C134AC348134AD3440346D3410
:100498000134AF34C0346F3480346E344134AE34F8
:1004A8000134AA34C0346A3480346B344134AB34F8
:1004B80000346934C134A9348134A83440346834F0
:1004C80000347834C134B8348134B93440347934A0
:1004D8000134BB34C0347B3480347A344134BA3488
:1004E8000134BE34C0347E3480347F344134BF3468
:1004F80000347D34C134BD348134BC3440347C3460
:100508000134B434C0347434803475344134B5346F
:1005180000347734C134B7348134B6344034763457
:1005280000347234C134B2348134B3344034733457
:100538000134B134C0347134803470344134B0344F
:1005480000345034C13490348134913440345134BF
:1005580001349334C03453348034523441349234A7
:1005680001349634C0345634803457344134973487
:1005780000345534C134953481349434403454347F
:1005880001349C34C0345C3480345D3441349D344F
:1005980000345F34C1349F3481349E3440345E3437
:1005A80000345A34C1349A3481349B3440345B3437
:1005B80001349934C034593480345834413498342F
:1005C80001348834C034483480344934413489345F
:1005D80000344B34C1348B3481348A3440344A3447
:1005E80000344E34C1348E3481348F3440344F3427
:1005F80001348D34C0344D3480344C3441348C341F
:1006080000344434C134843481348534403445342E
:1006180001348734C0344734803446344134863416
:1006280001348234C0344234803443344134833416
:1006380000344134C134813481348034403440340E
:04400E00F23F30004D
:00000001FF
