:0200000087294E
:0E0006008312031330088A002F0882000800BE
:0C001400831203139B011D129D120800B3
:100020008316031398181628000010288312370827
:04003000990008002B
:10003400FF3083120313B900FF30BA003808F00010
:10004400B803700803195D283A08F500F601FF307B
:100054003905F0003A08F1000030F1053708840052
:1000640000087006F3007108F4000030F406730809
:10007400F0007408F100F00DF10D7010F730F00786
:1000840001300318013EF1077008AF007108B00099
:1000940003208A110A12F000AF0A0319B00A0320E0
:1000A4008A110A12F10070087506B9007608710603
:1000B400BA00B70A20283908F0003A08F10008000D
:1000C400023083120313FC004930FD00FD0B682845
:0A00D400FC0B682800000000080083
:1000DE0083120313FB01FA01F9018030F800F10CD1
:1000EE00F00C031C83287408F90775080318750FA4
:1000FE00FA070318FB0A0310F01F8B287408FA077F
:10010E0075080318750FFB07FB0CFA0CF90CF80CAD
:10011E00031C76287B08F3007A08F2007908F100B8
:06012E007808F000080053
:10013400831603139816903083129800831687173A
:10014400071383128C1EA9281A08F000A32808009C
:1001540083120313B6013208F1000130F000710874
:100164000319B828F00D7010FF3EB2287008B500CE
:100174003108840070080005F10071080130031D86
:100184000030F0003408F0060319E0283308003C7E
:100194000318D02862206220B303C82831088400E1
:1001A40035080005F10071080130031D0030F0002E
:1001B4003408F0060319E028FF30B6003608F000D2
:0201C400080031
:1001C600803083120313F0008030A81B7F3070024A
:1001D600031DEF282808FE3C0318F328FE30A8006C
:0401E600A80A08005B
:1001EA00831603138710831212150C309D0408001E
:1001FA00831603131208013EF000F1010318F10AF5
:10020A0083123108F400F5016F200630F2007008FD
:10021A00F4007108F500720803191829F50CF40C9A
:10022A00F513FF3E11290430F1007408F00071083B
:10023A0003192329F00D7010FF3E1D293030700577
:10024A00F3007408F0007508F100F10CF00CF113DA
:10025A00F10CF00CF11370089B000F309D05730828
:04026A009D040800E7
:10026E008030831203132806F0008030013A7002AA
:0C027E00031843290130A800A803080061
:10028A00293083120313B7000330B8001A2070080C
:10029A00AC007108AD002930AE00B1010530310261
:1002AA00031864292E0884000008B7001020AE0A3B
:1002BA004230FD00FD0B5F290000B10A53290800F6
:1002CA008316031785010313051431308312A9001D
:1002DA003230AA0033308316990018159A20121466
:0C02EA009214F930831692000A200800DC
:1002F60003208A110A128000840AAF0A0319B00A81
:08030600F003031D7B29080030
:10030E0083120313A001A101A201A301A401A5015F
:10031E00A601A701A8016521F5202808B100FD203E
:10032E000530B100B201AA30B300B401AA207008A2
:10033E000319A3290130A00020080319B52905309F
:10034E00B100B2010130B3000130B400AA20700830
:10035E000319B5293330AB004521A0010530B1009A
:10036E000130B2006430B300B401AA207008031942
:10037E00C2290130A10021080319D5290530B10089
:10038E00B2010A30B3000130B400AA20700803197C
:10039E00D529E3202808B100FD20A1010530B100C8
:1003AE000230B2006430B300B401AA207008031901
:1003BE00E2290130A20022080319F5290530B10007
:1003CE00B2010A30B3000130B400AA20700803193C
:1003DE00F52937212808B100FD20A2019729F62919
:1003EE0000340034C134C0348134C134403401345B
:1003FE000134C334C0340334803402344134C23443
:10040E000134C634C0340634803407344134C73422
:10041E0000340534C134C5348134C434403404341A
:10042E000134CC34C0340C3480340D344134CD34EA
:10043E0000340F34C134CF348134CE3440340E34D2
:10044E0000340A34C134CA348134CB3440340B34D2
:10045E000134C934C0340934803408344134C834CA
:10046E000134D834C0341834803419344134D9347A
:10047E0000341B34C134DB348134DA3440341A3462
:10048E0000341E34C134DE348134DF3440341F3442
:10049E000134DD34C0341D3480341C344134DC343A
:1004AE0000341434C134D4348134D534403415344A
:1004BE000134D734C0341734803416344134D63432
:1004CE000134D234C0341234803413344134D33432
:1004DE0000341134C134D1348134D034403410342A
:1004EE000134F034C0343034803431344134F1349A
:1004FE0000343334C134F3348134F2344034323482
:10050E0000343634C134F6348134F7344034373461
:10051E000134F534C0343534803434344134F43459
:10052E0000343C34C134FC348134FD3440343D3429
:10053E000134FF34C0343F3480343E344134FE3411
:10054E000134FA34C0343A3480343B344134FB3411
:10055E0000343934C134F9348134F8344034383409
:10056E0000342834C134E8348134E9344034293439
:10057E000134EB34C0342B3480342A344134EA3421
:10058E000134EE34C0342E3480342F344134EF3401
:10059E0000342D34C134ED348134EC3440342C34F9
:1005AE000134E434C0342434803425344134E53409
:1005BE0000342734C134E7348134E63440342634F1
:1005CE0000342234C134E2348134E33440342334F1
:1005DE000134E134C0342134803420344134E034E9
:1005EE000134A034C0346034803461344134A134D9
:1005FE0000346334C134A3348134A23440346234C1
:10060E0000346634C134A6348134A73440346734A0
:10061E000134A534C0346534803464344134A43498
:10062E0000346C34C134AC348134AD3440346D3468
:10063E000134AF34C0346F3480346E344134AE3450
:10064E000134AA34C0346A3480346B344134AB3450
:10065E0000346934C134A9348134A8344034683448
:10066E0000347834C134B8348134B93440347934F8
:10067E000134BB34C0347B3480347A344134BA34E0
:10068E000134BE34C0347E3480347F344134BF34C0
:10069E0000347D34C134BD348134BC3440347C34B8
:1006AE000134B434C0347434803475344134B534C8
:1006BE0000347734C134B7348134B63440347634B0
:1006CE0000347234C134B2348134B33440347334B0
:1006DE000134B134C0347134803470344134B034A8
:1006EE0000345034C1349034813491344034513418
:1006FE0001349334C0345334803452344134923400
:10070E0001349634C03456348034573441349734DF
:10071E0000345534C13495348134943440345434D7
:10072E0001349C34C0345C3480345D3441349D34A7
:10073E0000345F34C1349F3481349E3440345E348F
:10074E0000345A34C1349A3481349B3440345B348F
:10075E0001349934C0345934803458344134983487
:10076E0001348834C03448348034493441348934B7
:10077E0000344B34C1348B3481348A3440344A349F
:10078E0000344E34C1348E3481348F3440344F347F
:10079E0001348D34C0344D3480344C3441348C3477
:1007AE0000344434C1348434813485344034453487
:1007BE0001348734C034473480344634413486346F
:1007CE0001348234C034423480344334413483346F
:1007DE0000344134C1348134813480344034403467
:04400E00F23F30004D
:00000001FF
